:10000000483E012071C501000743060029C50100D3
:1000100029C5010029C5010029C5010029C5010024
:1000200000000000000000000000000009B4010012
:1000300029C50100000000005DB3010029C50100D1
:10004000B5B40100B5B40100B5B40100B5B4010008
:10005000B5B40100B5B40100B5B40100B5B40100F8
:10006000B5B40100B5B40100B5B40100B5B40100E8
:10007000B5B40100B5B40100B5B40100B5B40100D8
:10008000B5B40100B5B40100B5B40100B5B40100C8
:10009000B5B40100B5B40100B5B40100B5B40100B8
:1000A000B5B40100B5B40100B5B40100B5B40100A8
:1000B000B5B40100B5B40100B5B40100B5B4010098
:1000C000B5B40100B5B40100B5B40100B5B4010088
:1000D000B5B40100B5B40100B5B40100B5B4010078
:1000E000B5B40100B5B40100B5B40100B5B4010068
:1000F000B5B40100B5B40100B5B40100B5B4010058
:10010000B5B40100B5B40100B5B40100B5B4010047
:10011000B5B40100B5B40100B5B40100B5B4010037
:10012000B5B40100B5B40100B5B40100B5B4010027
:10013000B5B40100B5B40100B5B40100B5B4010017
:10014000B5B40100B5B40100B5B40100B5B4010007
:04015000B5B4010041
:04015400FFFFFFFFAB
:1001580081F0004102E000BF83F0004330B54FEA70
:1001680041044FEA430594EA050F08BF90EA020FDD
:100178001FBF54EA000C55EA020C7FEA645C7FEA70
:10018800655C00F0E2804FEA5454D4EB5555B8BF93
:100198006D420CDD2C4480EA020281EA030382EA04
:1001A800000083EA010180EA020281EA0303362D96
:1001B80088BF30BD11F0004F4FEA01314FF4801C69
:1001C8004CEA113102D0404261EB410113F0004F7B
:1001D8004FEA03334CEA133302D0524263EB430332
:1001E80094EA050F00F0A780A4F10104D5F1200ED0
:1001F8000DDB02FA0EFC22FA05F2801841F100012B
:1002080003FA0EF2801843FA05F359410EE0A5F1FE
:1002180020050EF1200E012A03FA0EFC28BF4CF02F
:10022800020C43FA05F3C01851EBE37101F00045E5
:1002380007D54FF0000EDCF1000C7EEB00006EEBF2
:100248000101B1F5801F1BD3B1F5001F0CD349087C
:100258005FEA30004FEA3C0C04F101044FEA4452D3
:1002680012F5800F80F09A80BCF1004F08BF5FEA5A
:10027800500C50F1000041EB045141EA050130BD3A
:100288005FEA4C0C404141EB0101013C28BFB1F54C
:10029800801FE9D291F0000F04BF01460020B1FA97
:1002A80081F308BF2033A3F10B03B3F120020CDA6A
:1002B8000C3208DD02F1140CC2F10C0201FA0CF048
:1002C80021FA02F10CE002F11402D8BFC2F1200CAD
:1002D80001FA02F120FA0CFCDCBF41EA0C01904063
:1002E800E41AA2BF01EB0451294330BD6FEA0404AC
:1002F8001F3C1CDA0C340EDC04F11404C4F1200297
:1003080020FA04F001FA02F340EA030021FA04F3A8
:1003180045EA030130BDC4F10C04C4F1200220FAFF
:1003280002F001FA04F340EA0300294630BD21FA3D
:1003380004F0294630BD94F0000F83F4801306BF03
:1003480081F480110134013D4EE77FEA645C18BFF7
:100358007FEA655C29D094EA050F08BF90EA020F8E
:1003680005D054EA000C04BF1946104630BD91EA86
:10037800030F1EBF0021002030BD5FEA545C05D189
:100388004000494128BF41F0004130BD14F58004C8
:100398003CBF01F5801130BD01F0004545F0FE413C
:1003A80041F470014FF0000030BD7FEA645C1ABF71
:1003B800194610467FEA655C1CBF0B46024650EAA8
:1003C800013406BF52EA033591EA030F41F40021D4
:1003D80030BD00BF90F0000F04BF0021704730B55A
:1003E8004FF4806404F132044FF000054FF000012F
:1003F80050E700BF90F0000F04BF0021704730B5F0
:100408004FF4806404F1320410F0004548BF4042C4
:100418004FF000013EE700BF42004FEAE2014FEA19
:1004280031014FEA02701FBF12F07F4393F07F4FF4
:1004380081F06051704732F07F4208BF704793F0F7
:100448007F4F04BF41F40021704730B54FF460740A
:1004580001F0004521F000411CE700BF50EA01020D
:1004680008BF704730B54FF000050AE050EA0102B6
:1004780008BF704730B511F0004502D5404261EB26
:1004880041014FF4806404F132045FEA915C3FF467
:10049800D8AE4FF003025FEADC0C18BF03325FEA04
:1004A800DC0C18BF033202EBDC02C2F1200300FAB5
:1004B80003FC20FA02F001FA03FE40EA0E0021FADA
:1004C80002F11444BDE600BF70B54FF0FF0C4CF4C8
:1004D800E06C1CEA11541DBF1CEA135594EA0C0F7A
:1004E80095EA0C0F00F0DEF82C4481EA030621EAB5
:1004F8004C5123EA4C5350EA013518BF52EA0335F0
:1005080041F4801143F4801338D0A0FB02CE4FF0A1
:100518000005E1FB02E506F00042E0FB03E54FF0D1
:100528000006E1FB03569CF0000F18BF4EF0010EC9
:10053800A4F1FF04B6F5007F64F5407404D25FEAC5
:100548004E0E6D4146EB060642EAC62141EA555178
:100558004FEAC52040EA5E504FEACE2EB4F1FD0CBA
:1005680088BFBCF5E06F1ED8BEF1004F08BF5FEA38
:10057800500E50F1000041EB045170BD06F00046EA
:1005880046EA010140EA020081EA0301B4EB5C0497
:10059800C2BFD4EB0C0541EA045170BD41F480118F
:1005A8004FF0000E013C00F3AB8014F1360FDEBFB4
:1005B800002001F0004170BDC4F10004203C35DA90
:1005C8000C341BDC04F11404C4F1200500FA05F313
:1005D80020FA04F001FA05F240EA020001F00042B4
:1005E80021F0004110EBD37021FA04F642EB06012A
:1005F8005EEA430E08BF20EAD37070BDC4F10C0454
:10060800C4F1200500FA04F320FA05F001FA04F217
:1006180040EA020001F0004110EBD37041F1000103
:100628005EEA430E08BF20EAD37070BDC4F120050E
:1006380000FA05F24EEA020E20FA04F301FA05F276
:1006480043EA020321FA04F001F0004121FA04F21E
:1006580020EA020000EBD3705EEA430E08BF20EAEE
:10066800D37070BD94F0000F0FD101F00046400028
:1006780041EB010111F4801F08BF013CF7D041EAAA
:10068800060195F0000F18BF704703F000465200AE
:1006980043EB030313F4801F08BF013DF7D043EA7F
:1006A8000603704794EA0C0F0CEA135518BF95EA35
:1006B8000C0F0CD050EA410618BF52EA4306D1D1BC
:1006C80081EA030101F000414FF0000070BD50EADB
:1006D800410606BF1046194652EA430619D094EA65
:1006E8000C0F02D150EA013613D195EA0C0F05D14F
:1006F80052EA03361CBF104619460AD181EA0301A3
:1007080001F0004141F0FE4141F470014FF000005A
:1007180070BD41F0FE4141F4780170BD70B54FF0F5
:10072800FF0C4CF4E06C1CEA11541DBF1CEA135575
:1007380094EA0C0F95EA0C0F00F0A7F8A4EB050457
:1007480081EA030E52EA03354FEA013100F088804E
:100758004FEA03334FF0805545EA131343EA126317
:100768004FEA022245EA111545EA10654FEA0026CC
:100778000EF000419D4208BF964244F1FD0404F585
:10078800407402D25B084FEA3202B61A65EB0305E1
:100798005B084FEA32024FF480104FF4002CB6EB9E
:1007A800020E75EB030E22BFB61A754640EA0C001E
:1007B8005B084FEA3202B6EB020E75EB030E22BF5E
:1007C800B61A754640EA5C005B084FEA3202B6EB9F
:1007D800020E75EB030E22BFB61A754640EA9C005E
:1007E8005B084FEA3202B6EB020E75EB030E22BF2E
:1007F800B61A754640EADC0055EA060E18D04FEAEC
:10080800051545EA16754FEA06164FEAC30343EA8B
:1008180052734FEAC2025FEA1C1CC0D111F4801F58
:100828000BD141EA00014FF000004FF0004CB6E751
:1008380011F4801F04BF01430020B4F1FD0C88BFF0
:10084800BCF5E06F3FF6AFAEB5EB030C04BFB6EBFB
:10085800020C5FEA500C50F1000041EB045170BDEE
:100868000EF0004E4EEA113114EB5C04C2BFD4EB1B
:100878000C0541EA045170BD41F480114FF0000E9F
:10088800013C90E645EA060E8DE60CEA135594EA1B
:100898000C0F08BF95EA0C0F3FF43BAF94EA0C0F1E
:1008A8000AD150EA01347FF434AF95EA0C0F7FF493
:1008B80025AF104619462CE795EA0C0F06D152EAE7
:1008C80003353FF4FDAE1046194622E750EA4106CB
:1008D80018BF52EA43067FF4C5AE50EA41047FF4DC
:1008E8000DAF52EA43057FF4EBAE12E74A0011D28E
:1008F80012F5001211D20DD56FF47873B3EB625272
:100908000ED44FEAC12343F0004343EA505323FA7D
:1009180002F070474FF00000704750EA013002D1F2
:100928004FF0FF3070474FF0000070474FEA410228
:10093800B2F1E04324BFB3F5001CDCF1FE5C0DD935
:1009480001F0004C4FEAC0024CEA5070B2F1004F7F
:1009580040EB830008BF20F00100704711F0804F82
:1009680021D113F13872BCBF01F00040704741F447
:1009780080114FEA5252C2F11802C2F1200C10FA4B
:100988000CF320FA02F018BF40F001004FEAC1232F
:100998004FEAD32303FA0CFC40EA0C0023FA02F3D3
:1009A8004FEA4303CCE77FEA625307D150EA0133A9
:1009B8001EBF4FF0FE4040F44000704701F0004079
:1009C80040F0FE4040F40000704700BF53B94AB9F8
:1009D800002908BF00281CBF4FF0FF314FF0FF303F
:1009E80000F02AB8ADF1080C6DE904CE00F003F967
:1009F800DDF804E0DDE9022304B07047D0B5002239
:100A08000B4B06460F46FFF75FFDFFF76FFF0446E7
:100A1800FFF7E0FC0022074BFFF756FD02460B46A6
:100A280030463946FFF798FBFFF760FF2146D0BDF7
:100A38000000F03D0000F041704700BF4FF0FF3C60
:100A480006E000BF4FF0010C02E000BF4FF0010CC0
:100A58004DF804CD4FEA410C7FEA6C5C4FEA430C39
:100A680018BF7FEA6C5C1BD001B050EA410C0CBF88
:100A780052EA430C91EA030F02BF90EA020F0020EA
:100A8800704710F1000F91EA030F58BF994208BF51
:100A980090422CBFD8176FEAE37040F0010070470E
:100AA8004FEA410C7FEA6C5C02D150EA013C07D165
:100AB8004FEA430C7FEA6C5CD6D152EA033CD3D0B0
:100AC8005DF8040B704700BF8446104662468C46AA
:100AD8001946634600E000BF01B5FFF7B7FF0028DD
:100AE80048BF10F1000F01BD4DF808EDFFF7F4FF06
:100AF8000CBF012000205DF808FB00BF4DF808ED91
:100B0800FFF7EAFF34BF012000205DF808FB00BFB3
:100B18004DF808EDFFF7E0FF94BF012000205DF8D5
:100B280008FB00BF4DF808EDFFF7CEFF94BF01208A
:100B380000205DF808FB00BF4DF808EDFFF7C4FF83
:100B480034BF012000205DF808FB00BF4FEA410CCC
:100B58007FEA6C5C02D150EA013C0AD14FEA430CAF
:100B68007FEA6C5C02D152EA033C02D14FF00000EC
:100B780070474FF0010070474FEA410212F500122A
:100B880015D211D56FF47873B3EB625212D94FEACC
:100B9800C12343F0004343EA505311F0004F23FAB6
:100BA80002F018BF404270474FF00000704750EA0B
:100BB800013005D111F0004008BF6FF000407047C8
:100BC8004FF00000704700BF38B5002200230446EC
:100BD8000D46FFF793FF28B920462946BDE838405F
:100BE800FFF70CBF204605F10041FFF707FF404221
:100BF80061EB410138BD2DE9F04786468C46084631
:100C0800089E154674461946002B40F0C18085425F
:100C1800B2FA82F245D94AB1C2F1200300FA02FCC5
:100C2800954094402EFA03F343EA0C0C4FEA154E14
:100C3800A8B2230CBCFBFEF80EFB18CC08FB00F98D
:100C480043EA0C43994528D9EB1808F1FF3704D239
:100C5800994502D9A8F102072B44A3EB0903A4B2D2
:100C6800B3FBFEFC0EFB1C330CFB00F044EA034410
:100C7800A04214D92C190CF1FF3304D2A04202D996
:100C8800ACF102032C44241A43EA07401EB1D440B5
:100C9800002334607360BDE8F0874746DDE76346AC
:100CA800F1E792BB431B01214FEA154EAFB2200C6E
:100CB800B3FBFEFC0EFB1C330CFB07F840EA0343B6
:100CC800984561D9EB180CF1FF3004D2984502D948
:100CD800ACF102002B44A3EB0803A4B2B3FBFEFC67
:100CE8000EFB1C330CFB07F744EA0344A7424DD91B
:100CF8002C190CF1FF3304D2A74202D9ACF102033C
:100D08002C44E41B43EA0040C0E7C2F120039540AD
:100D1800944020FA03F12EFA03F34FEA154E90405F
:100D2800AFB20343B1FBFEFC0EFB1C10190C0CFB0D
:100D380007F841EA0041884522D969180CF1FF30CB
:100D480004D2884502D9ACF102002944A1EB08017C
:100D58009BB2B1FBFEFC0EFB1C110CFB07F743EA30
:100D680001439F420ED9EB180CF1FF3104D29F4288
:100D780002D9ACF102012B44DB1B41EA004193E7A5
:100D88006046E3E76146F7E76046A4E76346B8E7ED
:100D9800834206D916B9002108467CE7C6E900E077
:100DA800F9E7B3FA83F78FB9834201D3724508D8BC
:100DB800BEEB020460EB030301209C461EB9002130
:100DC80069E73846FAE7C6E9004CF8E7C7F1200CAE
:100DD800BB400EFA07F522FA0CF42EFA0CF1BA40D1
:100DE8001C4320FA0CF3B8404FEA144901431FFA98
:100DF80084FEB3FBF9F809FB18300B0C08FB0EFA5C
:100E080043EA00439A4540D9E31808F1FF3004D279
:100E18009A4502D9A8F102002344A3EB0A0389B238
:100E2800B3FBF9F809FB183308FB0EFE41EA03414E
:100E38008E452CD9611808F1FF3304D28E4502D9AA
:100E4800A8F10203214443EA0040A1EB0E01A0FBF4
:100E580002984145CE46434602D306D14D4504D2B9
:100E68000138B9EB020E68EB0403002EA7D0B5EBEE
:100E78000E0261EB030101FA0CFC22FA07F3F940B8
:100E88004CEA0303C6E9003199E74046C5E7434603
:100E9800D9E770B4840746D04C1E002941D0D5B29A
:100EA800034602E0611EE4B30C4603F8015B9907B0
:100EB800F8D1032C2ED9D5B245EA05250F2C45EAE1
:100EC800054519D9264603F11001103E0F2E41F8A9
:100ED800105C41F80C5C41F8085C41F8045C01F1D5
:100EE8001001F2D8A4F1100121F00F0104F00F0451
:100EF8001031032C0B440DD91E4621460439032911
:100F080046F8045BFAD8211F21F0030104310B4491
:100F180004F003042CB1D2B21C4403F8012BA34201
:100F2800FBD170BC70470C460346C2E710F8012B92
:100F380011F8013B012A28BF9A42F7D0D01A70470E
:100F4800034613F8012B002AFBD1181A0138704701
:100F580070B52DED028B82B0044629B1C4EBC402F2
:100F6800334B03EBC2039961C4EBC403304A12F854
:100F78003330304803700BF0E5FF18B102B0BDEC18
:100F8800028B70BD0DF106005EF0BBFD0028F5D1A7
:100F9800BDF8060040F4806080B2ADF806005EF04F
:100FA800AAFD0028EAD1244D28780CF05BF830EE31
:100FB800008A224E30780CF01DF907EE900AF8EE00
:100FC800E77A67EE887A17EE900AFFF725FA16A3F4
:100FD800D3E90023FFF778FA41EC100B00F0E0F8B2
:100FE80051EC100BFFF782FC154B1870C4EBC403CF
:100FF8000F4800EBC300337843702B788370C370BD
:101008000723037101305EF03FFD0028B6D109487F
:101018000BF0A8FF0028B1D10122A24009490B78A2
:1010280013430B70AAE700BF9A9999999999F13FD0
:1010380004060020BCAE0020031500200215002085
:101048002BD000202DD0002010B5082140F60140FB
:101058001DF004FFD8B104460821084435F0CEFE3F
:1010680002460F4B93F8883013F0010F0BD10D484F
:101078004FF0005163F018FB0022214640F6014072
:101088001DF03EFF10BD04A1D1E90001F2E76FF0A9
:101098006800F7E7AFF30080908800020080002026
:1010A800000000201088000230B589B00C9D00288F
:1010B80039D00446002943D0D0F8200110F0010FA0
:1010C8004BD10020C4F80801C4F80C0104F588705D
:1010D800C4F81001C4F8140104F58C70C4F81801A0
:1010E800C4F81C01002D45D02879002844D10120DE
:1010F800C4F820019FED227B8DED067B0020049033
:1011080003930290019000941F4B204641F014FC79
:1011180025B1296811B1204641F0DAF920466EF070
:10112800A1FA09B030BD194C4FF432732246184960
:1011380018485FF0BDFD4FF43271204610F06AF890
:10114800124C40F2C9232246134912485FF0B0FD01
:1011580040F2C921204610F05DF80C4C40F2CA2339
:1011680022460E490B485FF0A3FD40F2CA212046F3
:1011780010F050F80120BBE740F20110B8E700BFBB
:10118800FFFFFFFFFFFFFFFFF138040090F60700A5
:1011980058F70700A416070060F7070068F707006C
:1011A80051EC100BC1F30A532DE9F041A3F2FF36BD
:1011B8000C4605468046132E2FDC002E11DA32A38A
:1011C800D3E90023FEF7CAFF00220023FFF7B4FC8F
:1011D80020B1002C50DB254352D12C46214628460D
:1011E80024E02B4F374101EA070303431ED026A30F
:1011F800D3E90023FEF7B2FF00220023FFF79CFC8F
:101208000028EBD0002C4FF00005C2BF4FF480132C
:101218003341E41824EA0704E0E7332E0ADDB6F583
:10122800806F03D102460B46FEF798FF41EC100B86
:10123800BDE8F081A3F213434FF0FF37DF40384297
:10124800F4D011A3D3E90023FEF788FF002200237E
:10125800FFF772FC0028C1D0002C0ADD142E01D142
:10126800013406E0C6F134060123B3401D44A84505
:10127800F6D825EA0705B1E700254FF00044ADE7A9
:101288000025044CAAE700BF9C7500883CE4377E23
:10129800FFFF0F000000F03F2DE9F04F1F469DB003
:1012A80000230C4682460F9218934FF00008984B83
:1012B8004FF000091D682846FFF742FE2246834684
:1012C800179213782B2B3BD02CD80D2B26D8082B14
:1012D80026D8002B2FD000230D93179E3378302B60
:1012E80074D1737803F0DF03582B65D10D9B17A9D0
:1012F800884A5046019318AB0297009319AB5DF0EA
:101308006BFA10F00705044635D0062D1AD10F9B4D
:101318000BB101361E6042464B4637E0202BDAD12E
:101328000132CDE72D2BD6D101230D93531C1793F2
:101338005378002BD1D10F9B002BECD01C60EAE72F
:101348000023F2E7189A3AB135211AA86FF089FA02
:10135800189950465DF000FD013D199A042D06D8F4
:10136800DFE805F0190322251900DDE91A892107AC
:1013780001D549F000490F9B13B1179B0F9A1360D1
:101388000D9B002BC7D0424609F1004343EC102BBC
:101398001DB0BDE8F08FDDE91A8302F2334223F471
:1013A800801343EA0259E2E7DFF86C91DFE76FF058
:1013B80000494FF0FF38DAE7179B5A1C17925B7801
:1013C800302BF9D0002BD6D0012300E000230027D2
:1013D80004930A22179BCDE905770A931798067894
:1013E800A6F13003D9B2092924D95A4629466EF004
:1013F8008DFE00282DD000203246059D83460346E9
:10140800652A01D0452A13D11DB9049A024392D006
:101418000025179C621C179262782B2A6ED02D2A01
:1014280072D04FF0000CA2F1300109297AD9179433
:10143800002699E00599013008291790D7BF069929
:1014480002FB073702FB01330693059B0133059323
:10145800C4E7179B03EB0B02179213F80B20059BAD
:10146800A3B383461D46A2F13003092B12D90123E9
:10147800C6E7179B01305A1C17925A78302AF8D0C1
:10148800A2F13103082B00F2EF8483460020179B5A
:1014980005460A93303A00F1010311D09B4400EB52
:1014A800050C2B460A21634512D12B180135082B50
:1014B800054419DC06990A2303FB0123069300233C
:1014C800179A1846511C17915278CCE70598D5E71A
:1014D800082B03F1010303DC069E4E430696E2E760
:1014E800102BD8BF4F43DEE70F2BDCBF0A2303FBCB
:1014F8000727E4E74FF0000B012386E74FF0000CC5
:10150800A21C1792A2788EE74FF0010CF8E700BFF3
:10151800F02808007C2808000000F07F179A511C6A
:1015280017915278302AF9D0A2F1310108293FF6F3
:101538007FAF303A0792179A0C92179A561C179653
:101548005278A2F1300EBEF1090F38D90C99761AEB
:10155800082E44F61F6603DC07998E42A8BF0E4684
:10156800BCF1000F00D07642002D4FD104990843FA
:101578007FF401AF002B7FF4DEAE692A29D026DC88
:10158800492A26D04E2A7FF4D6AE9B4917A86EF07A
:10159800E6FF00283FF4CFAE179B1B78282B2FD1EE
:1015A8001AAA964917A86EF0EEFF052828D11B9BAA
:1015B800DDF8688043F0FF4949F4E009DBE6079E5F
:1015C8000A2101FB0621A1F130020792B5E76E2A34
:1015D800D9E78B4917A86EF0C2FF00283FF4ABAEDD
:1015E800179B17A88749013B17936EF0B8FF10B9EE
:1015F800179B01331793DFF81C924FF00008BAE6E7
:10160800814801F079FA59EC108BB4E6A6EB0B038C
:1016180006982C460C93059B002B08BF2B46102DD3
:101628000593A8BF1024FEF7D5FE092D80468946EC
:1016380013DC0C9B002B3FF49EAE0C9B78DD162B25
:1016480045DC7249424601EBC3014B46D1E9000132
:10165800FEF73AFF804689468DE66C4B03EBC403E0
:1016680053E91223FEF730FF804689463846FEF7D5
:10167800B1FE02460B4640464946FEF76FFD0F2D68
:1016880080468946D5DD2C1B0C9B1C44002C25DC90
:1016980000F0A280644214F00F020AD05B4B40466F
:1016A800494603EBC203D3E90023FFF737F8804626
:1016B8008946241100F090801F2C40F3B18022232A
:1016C8004FF000084FF00009CAF8003053E6C5F1A2
:1016D80025030C9A934219DA2C1B144414F00F03B7
:1016E8000AD04A49424601EBC3014B46D1E9000101
:1016F800FEF7EAFE8046894634F00F046CD0B4F554
:101708009A7F41DD2223CAF8003074E7C5F10F053E
:101718003E4C42464B4604EBC501D1E90001FEF7B9
:10172800D3FE0C9B5D1B04EBC504D4E900238FE7B3
:101738001633A8DBABEB0602344B4046494603EBB5
:10174800C203D3E90023FEF7E9FF83E700230693EA
:101758002223DFF8C0904FF00008CAF8003018992B
:1017680050465DF0F9FA069950465DF0F5FA05998C
:1017780050465DF0F1FA109950465DF0EDFA079980
:1017880050465DF0E9FAF6E5002324114046494643
:101798001F4F0493012C22DC0BB180468946049B21
:1017A800A9F154791A49424601EBC3014B46D1E9E4
:1017B8000001FEF789FE174B0A4680460B40164982
:1017C8008B429FD8A1F580118B4286BFDFF84C90E1
:1017D8004FF0FF3802F15479002304934BE0E207FD
:1017E80004D5D7E90023FEF76FFE0123049A64109D
:1017F800083701320492CDE785710800682808008F
:101808007D710800AF71080065700800A815070011
:10181800801507000000F07F0000A07CFFFFEF7F2D
:1018280014F0100340464946AA4F18BF6A23049390
:101838000023E20704D5D7E90023FEF745FE01237C
:10184800641007F10807F4D10BB180468946049B60
:1018580043B1C9F30A524946C2F16B03002B4EDC6F
:101868006A2304930022002340464946FFF73CF9C7
:1018780000287FF424AF069B5046059A00932B4618
:101888000A995DF0D3FA109000283FF43BAF0C9B07
:10189800ABEB060B002BB4BF5B46002311930C9BEC
:1018A80023EAE3731393002307930593109B504691
:1018B80059685DF011FA069000283FF449AF109B73
:1018C8000C301A6903F10C01023292006EF082FAB0
:1018D8001AAA19A9504649EC108BCDE90A895DF07E
:1018E80081FD189000283FF433AF012150465DF088
:1018F800E7FA03460590D0B90023059328E71F2B84
:101908000EDD342B4FF00008DBBF4FF0FF33C2F180
:101918004B024FF05C799340D8BF03EA01099FE777
:101928004FF0FF3202FA03F303EA080898E7199C1C
:101938001A9A002CA9BF119B139BE718139EB8BFD6
:101948001E1B049BB8BF119FE41A634B1444C2F1D9
:101958003602013C9C4280F2B0801B1B01251F2BE4
:10196800A2EB0302CDBFC4F17F449D40002404F5DF
:101978007F04C2BF04F57B44E23405FA04F407EBA4
:10198800020B049B16445F451E443B46A8BF5B46BA
:10199800B342A8BF3346002BC2BFABEB030BF61A0A
:1019A800FF1A119B002B16DD1A46059950465DF06B
:1019B80047FB059000289FD00146189A50465DF0D5
:1019C80095FA0E9000283FF4C3AE189950465DF082
:1019D800C3F90E9B1893BBF1000F71DC0C9B002B15
:1019E80008DD139A504606995DF02AFB06900028F8
:1019F8003FF4ACAE002E08DD3246069950465DF045
:101A080079FB069000283FF4A1AE002F08DD3A4686
:101A1800059950465DF06EFB059000283FF498AE9E
:101A2800069A504618995DF0D1FB079000283FF4BC
:101A38008FAEC36805990E930023C3606EF0C4FE91
:101A480000284BDA0E9B53EA080340F0BC80C9F328
:101A58001303002B40F0B78029F000431B0D1B0532
:101A6800B3F1D66F40F2AF80079B5B6923B9079B40
:101A78001B69012B40F3A7800122079950465DF0AE
:101A880039FB059907906EF09FFE002840F39B8074
:101A980029F00043049A1B0D1B05002A79D0B3F1E5
:101AA800D66F6DD8B3F15C7F46D84FF000084FF081
:101AB80000092223CAF8003051E6002401255EE718
:101AC8005A46189950465DF015FB1890002885D1A4
:101AD8003EE600BF5815070002FCFFFFCB4640F06A
:101AE800A3800E9AC9F31303002A40D09C4A93425C
:101AF80058D1049B42467BB9B8F1FF3F40F089803A
:101B0800984B99453FF424AE974BDDF8108009EACD
:101B1800030303F5801922E6934B09EA0303B3F1A3
:101B2800D46F16D918F101011BD18E4A91453FF4A3
:101B38000FAE03F5801980468C4B4046494600227B
:101B4800FEF7C2FC0B468046894603437FF407AE86
:101B5800AFE71E0D4FF0FF31C6F16B06B140884567
:101B6800E7D0002C5ED014EA0B0FE5D01EE0002B66
:101B78004AD1B8F1000F8BD064B314EA0B0F2BE0F5
:101B8800A3F580134FF0FF386FEA13596FEA09592C
:101B9800D2E7A3F580134FF0FF386FEA13596FEAC5
:101BA8000959DCE59CB114EA090F0CD040464946B6
:101BB800049A6EF0F2FADDE90A0153EC102BFEF7F5
:101BC800CDFA80468946049B002BB5D1C7E515EAB6
:101BD800080FEAE718EA050FF5D0049A4046494687
:101BE8006EF0DBFADDE90A0153EC102BFEF7B4FACC
:101BF8000022002304460D46FEF776FF00287FF4F6
:101C080054AFA046A946DEE7002CB6D115EA080F66
:101C1800E2E724B114EA090F3FF4A1ADC6E718EAD8
:101C2800050FF9E72A42A0E7059907986EF0E7FD46
:101C380000224FF0804355EC104B20462946FEF712
:101C480067FF00286DD00E9B002B78D1B8F1000FEC
:101C580056D1C9F31303002B59D10022444B204617
:101C68002946FEF74BFF002858D120462946002276
:101C7800404BFEF729FC04460D4605F10043089445
:101C88000993394B0BEA03031293129A3A4B9A427F
:101C9800DDE9086740F0A980ABF1547949EC108B75
:101CA8005DF02CFBDDE9082351EC100BFEF70CFC72
:101CB80042464B46FEF752FA0B462B4980462F4ABE
:101CC800194091425CD90B9A264B9A4203D10A9B40
:101CD80001333FF43DADDFF88C904FF0FF38189991
:101CE80050465DF039F8069950465DF035F805998B
:101CF80050465DF031F8079950465DF02DF8D5E56E
:101D0800B8F1010F03D1B9F1000F3FF4CEAE0024B2
:101D1800174D9FED0F7B8DED087BB2E70024154D25
:101D2800ABE7144B204629460022FEF7CDFB0E9B5D
:101D380004460D46002BA0D0CDE90845A1E79FED4C
:101D4800067B55EC174B8DED087B9AE7AFF30080C7
:101D5800000000000000F0BF000000000000F03F9D
:101D6800FFFF0F00FFFFEF7F0000F07F00005039FA
:101D78000000F03F0000E03F0000E07FFFFF9F7C95
:101D880003F15479049B4E46002BA8D129F0004357
:101D9800129A1B0D1B059A42A1D120462946FEF72F
:101DA80013FFC9F31306FEF761FB0B4602462946EB
:101DB800204646EA0806FEF7CFF90E9B04460D4674
:101DC8001E434BD02EA3D3E90023FEF797FE00282D
:101DD8007FF4C5AC204629462BA3D3E90023FEF7A0
:101DE800ABFE00283FF47BAFB9E4049B13B3129B0E
:101DF800B3F1D46F1ED82046294625A3D3E9002382
:101E0800FEF786FE90B129462046FEF76FFD0128B1
:101E180038BF0120FEF7DEFA0E9B04460D46D3B903
:101E280001F1004314901593DDE9146707F1D663B7
:101E3800129A9F1A9DED0A0B5DF060FA30463946FA
:101E480053EC102BFEF740FBDDE90A23FEF786F979
:101E58008046894696E7CDE91445E5E70EA3D3E920
:101E68000023FEF74BFEBCE7652A3FF443AB452A47
:101E78003FF440AB0123FFF779BB00BFAFF300800D
:101E88009535A094FFFFDF3F35E5AF350000E03F13
:101E98000000C0FFFFFFDF419535A094FFFFCF3F53
:101EA8002DE9F04F476A97B08346209E08910C921F
:101EB800129355EC104B8DED000B7FB910205BF0A1
:101EC80021FC0246CBF8240020B9A74BEA21A748F9
:101ED8005BF0E8FBC0E901770760C760DBF82430F6
:101EE800196859B15A680123584693404A608B6073
:101EF8005CF032FFDBF8243000221A602B1EB7BFDB
:101F080023F00043002301220193A8BF3360019FFF
:101F1800974BB8BF3260BB4319D142F20F73129A84
:101F28001360C7F31303234300F0DB85219B53B9E8
:101F3800904B21E0904B03930833219A1360039848
:101F480017B0BDE8F08F8B4B03930333F5E79DED96
:101F5800007B0022002351EC170B8DED0A7BFEF766
:101F6800C3FD804650B10123129A1360219B13B11F
:101F7800824B219A1360824B0393E0E7C7F30A561A
:101F880014AA15A958469DED0A0B5DF02BFA02908C
:101F9800002E76D00B9BA6F2FF36CDF84C80C3F30B
:101FA800130343F07F53DDE90A0143F44013194654
:101FB8000022744BFEF7D0F865A3D3E90023FEF79F
:101FC80083FA65A3D3E90023FEF7C8F804460D4653
:101FD8003046FEF70FFA62A3D3E90023FEF774FA3E
:101FE80002460B4620462946FEF7B8F804460D4639
:101FF800FEF7C2FD00220746002320462946FEF7C9
:102008007DFD40B13846FEF7F5F922462B46FEF72E
:102018006BFD00B9013F162F52D85B4B03EBC7038A
:10202800DDE90A01D3E90023FEF768FD002849D05D
:10203800013F00231193149B9B1B5A1E4CBFC3F1F5
:1020480001030023079245BF0693002306930793D5
:10205800002F39DB079B10973B4407930023099314
:10206800089B092B66D8052BC5BF043B0024012417
:102078000893089B023B032B67D8DFE803F02D3A4F
:102088003859DDE914631E4406F23243202BC9BFD8
:10209800C3F14003C3F120039F4006F21243D8BFA7
:1020A80004FA03F006F1FF36C4BF24FA03F347EA43
:1020B8000300FEF78FF90122A1F1F873139276E776
:1020C8000123B7E71190B6E7069BDB1B06937B421B
:1020D800099300231093C3E700230D930C9B002B57
:1020E80056DC012399461A4604930C920CE001230E
:1020F800F3E700230D930C9BFB1803F101090493EC
:102108004B46012BB8BF0123DBF824000021042231
:1021180002F114059D423FD9416058465CF0DCFD50
:10212800039000283BD1194B02464FF4D571CEE6F7
:102138000123DFE7012400230D9408934FF0FF33B8
:102148000022994604931223CFE701230D93F5E764
:1021580061436F63A787D23FB3C8608B288AC63FA5
:10216800FB799F501344D33FB9710800D071080020
:102178000000F07FB5710800AC7108008971080093
:10218800887108000000F83FA8150700447208008D
:102198000C9B99460493B7E701315200B8E7DBF886
:1021A8002430B9F10E0F039A1A606FD8002C6DD045
:1021B800002F36DD07F00F02A04BF8054FEA271471
:1021C80003EBC20393ED007B8DED0E7B17D59C4B83
:1021D80004F00F044FF00308D3E90823DDE90A01EE
:1021E800FEF79CFACDE90001954D5CB9DDE90E23B7
:1021F800DDE90001FEF792FACDE900012BE04FF08E
:102208000208F1E7E10709D508F10108DDE90E0147
:10221800D5E90023FEF758F9CDE90E016410083519
:10222800E3E700F007817C42844B854D4FF00208BC
:1022380004F00F02241103EBC203DDE90A01D3E91C
:102248000023FEF741F90023CDE90001002C40F0FE
:10225800E580002BD0D1119BDDE90045002B00F073
:102268004C810022774B20462946FEF747FC002880
:1022780000F04381B9F1000F00F03F81049B002B6F
:1022880000F3E480DDE90A34CDE90034159B002B26
:1022980002DB0E2F40F342820D9A002A40F067823B
:1022A800099C0025DDF81880B8F1000F0DD0079BB8
:1022B800002B0ADD4345069AA8BF4346D21AA8EB6D
:1022C80003080692079AD31A0793099B0BB30D9B31
:1022D800002B00F0A682002C00F0A182294622469D
:1022E80058465CF0ADFE029A0146054658465CF039
:1022F800FDFD0299064658465CF02EFD099B1B1B06
:10230800099300F09182099A314658465CF098FE8C
:102318000290012158465CF0D3FD109B0446002B27
:1023280000F084821A46014658465CF089FE089BF4
:102338000446012B03DC009B002B00F07C82002666
:10234800236904EB830318696EF0EFF9C0F12000EC
:102358001096079B184410F01F0000F09182C0F1FE
:102368002003042B40F38182C0F11C00069B034428
:1023780080440693079B03440793069B002B05DDC7
:102388001A46029958465CF0B5FE0290079B002B4E
:1023980005DD21461A4658465CF0ACFE0446119B02
:1023A800002B00F07682214602986EF00DFA002884
:1023B80080F26F8200230A22029958465CF0EEFCF4
:1023C8000D9B7E1E0290002B00F05C8200232946A4
:1023D8000A2258465CF0E2FC049B0546002B03DC0D
:1023E800089B022B00F35E82B8F1000F05DD294639
:1023F800424658465CF07EFE0546109B002B00F0D6
:10240800D082696858465CF067FC0746002840F0AF
:102418007F820D4B024640F2EA2158E5E20706D5D5
:1024280008F10108D5E90023FEF74EF801236410EE
:1024380008350BE74FF002080DE700BFA8150700A5
:10244800801507000000F03F447208002046002273
:10245800AC4B2946FEF738F87E1E08F10108049CAB
:10246800CDE900014046FDF7C5FFDDE90023FEF791
:102478002BF8A54B0022FDF771FEA1F15073CDE9B1
:102488000E010F93002C3BD10022A04BDDE9000187
:10249800FDF762FE02460B46CDE90023DDE90E2377
:1024A800FEF74AFB002840F05781DDE90E2101F1D3
:1024B8000043DDE90001FEF721FB00283FF4E2AE0E
:1024C800002425460C9BDDF80CA0DE434FF00008E5
:1024D800214658465CF040FC002D00F0A980B8F178
:1024E800000F05D0A84503D0414658465CF034FC9F
:1024F800294658465CF030FC9AE03E464C46B1E727
:10250800834B03EBC40353E90201039B1C440D9B5B
:10251800002B4AD002460B4600207E49FEF7FEF803
:10252800DDE90E23FDF718FEDDF80CA0CDE90E015C
:10253800DDE90001FEF720FB0546FDF75BFF0246DB
:1025480030350B46DDE90001FDF706FE0AF8015BB0
:1025580002460B46CDE90001DDE90E01FEF7ECFA73
:10256800002865D100206C49DDE90023FDF7F4FD62
:1025780002460B46DDE90E01FEF7DEFA002840F0C0
:102588000D81A24500F0EA8000225E4BDDE90E01D4
:10259800FDF79AFF00225B4BCDE90E01DDE9000152
:1025A800FDF792FFCDE90001C2E7DDE90E23FDF753
:1025B8008BFFA046DDF80CA0CDE90E01DDE9000196
:1025C800FEF7DAFA0546FDF715FF024630350B46E9
:1025D800DDE90001FDF7C0FD0AF8015B02460B4684
:1025E800A245CDE900234FF0000223D1494BDDE994
:1025F8000E01FDF7B3FD02460B46DDE90001FEF7CB
:102608009BFA002840F0CA8000204249DDE90E23E9
:10261800FDF7A2FD02460B46DDE90001FEF76EFA62
:1026280070B1C24608F1FF381AF8013C302BF8D0D7
:10263800374655E0334BFDF747FFCDE90001BDE7CD
:10264800DDE90A34CDE90034159B002BFFF628AEEE
:102658000E2F3FF725AE2E4B03EBC70393ED007B00
:102668000C9B002B8DED047B02DAB9F1000F64D0CE
:10267800DDF80CA0DDE90045DDE904232046294604
:10268800FEF74CF8FEF778FA0646FDF7B3FEDDE9EB
:102698000423FDF719FF0246204606F130040B46D5
:1026A8002946FDF759FD0AF8014B039C02460B46E3
:1026B800AAEB0404A14540F08280FDF74FFD0446D3
:1026C8000D46DDE90423FEF737FA002865D12046D8
:1026D8002946DDE90423FEF707FA08B1F3075CD4BD
:1026E800029958465CF038FB002301378AF800301D
:1026F800129B1F60219B002B3FF421ACC3F800A064
:102708001DE400BF0000244000001C4000001440ED
:10271800A81507000000E03F0000F03FA24B03EBC4
:10272800C70393ED007B0C9B002B8DED047B9FDA98
:10273800B9F1000F9CDC7FF4C3AE00229B4BDDE9AE
:102748000401FDF7C1FEDDE90023FEF7EBF90446BD
:1027580000287FF4B5AE3E462546B4E0DDE90A34EC
:10276800CDE90034159B002B01DB0E2FD6DD089A2E
:10277800012A36DC139A82B303F23343099CDDF84D
:102788001880069A012158461A440692079A1A4454
:1027980007925CF095FB054686E53E4653469A4609
:1027A80013F8012D392A06D1039A9A42F7D130221B
:1027B800039901360A701A7801321A7038E7002234
:1027C8007B4BFDF781FE0022002304460D46FEF7F1
:1027D8008BF900283FF450AF82E7149BC3F136030E
:1027E800CCE709F1FF34099BA34208DBB9F1000FDC
:1027F800A3EB04040EDBDDF818804B46C1E7099B08
:10280800109AE31A0994DDF8188000241A444B46FC
:102818001092B6E7069BA3EB09080023B1E7029ED6
:1028280071E5099A029970E5029672E5089B012BF9
:1028380017DC009BABB9019BC3F313039BB9019B46
:1028480023F00046360D360536B1069B01260133C6
:102858000693079B01330793109B002B7FF470AD01
:102868001096012075E50026F6E73FF486AD1C3387
:10287800069A1A4498440692079A1A4407927CE5E5
:102888000346F4E7049B002B2BDC089B022B09DC96
:1028980027E0B9F1000F1DDC089B022B1ADD3E462C
:1028A800CDF81090049B002B7FF40CAE2146052236
:1028B80058465CF073FA0146044602986DF084FFAE
:1028C80000287FF7FFADDDF80CA0312301360AF8A8
:1028D800013BFBE50D9B3E46CDF81090002B7FF4A5
:1028E80083AD039F214602986DF07CFC039B00F1A9
:1028F8003009049A07F8019BFB1A9A4240F3CB80EF
:1029080000230A22029958465CF048FA0290E9E747
:102918002A6905F10C010C30023292006DF05AFA66
:102928000122394658465CF0E5FB039BA84605465C
:1029380003F1010ADDE9032313440793009B03F025
:10294800010309930AF1FF332146029804936DF0BD
:1029580049FC4146069000F1300902986DF034FFB9
:102968002A462146074658465CF030FCC2680146B4
:1029780002B358465CF0F0F9002F3ADA01220299C6
:1029880058465CF0B7FB214602906DF01DFF002809
:1029980003DC29D119F0010F26D0B9F1390F1DD167
:1029A80032E02846C1E700BFA81507000000144020
:1029B800000024400A9002986DF006FF0A990C90D6
:1029C80058465CF0C9F90C9A5ABB089B53B9099B45
:1029D80043B9B9F1390F17D0002F05DD069B03F174
:1029E800310901E0002F2ADADDF810A00AF8019B6E
:1029F8006EE5089B3B4304D1009B03F00103002BC9
:102A0800BCD0B9F1390F36D1049F392307F8013BFF
:102A1800BA46013F1AF8013C392B5AD001333B70B2
:102A280056E5002F06DB089B3B4306D1009B03F0CD
:102A3800010313B9002AA1DCD6E7002AE1DC079BD1
:102A480057460AF8019C53452ED000230A220299C2
:102A580058465CF0A3F9A84502904FF000034FF0E8
:102A68000A02414658460BD15CF098F98046054663
:102A78000AF1010A66E7DDF810A009F10109B5E7D6
:102A88005CF08CF92946804600230A2258465CF0FF
:102A980085F90546ECE7049B4FF00008002BCCBFF6
:102AA8001F460127039B1F440122029958465CF0E8
:102AB80021FB214602906DF087FE0028A8DC02D198
:102AC80019F0010FA4D1BA4617F8013D302BFAD0FE
:102AD800FEE4039BBB429BD13123039A013613705A
:102AE800F6E4219B002B7FF425AA014BFFF744BA9B
:102AF800AC710800000000009FED010B704700BF9B
:102B0800000000000000F87F03292FD8DFE801F05B
:102B1800020F1C2922B1D0F8183403F003031370F4
:102B2800D0F8183413F4803F2ED10020704722B11A
:102B3800D0F80C3403F001031370D0F80C3413F4FC
:102B4800803F23D10020704722B1D0F85C3403F0D5
:102B580001031370D0F85C3413F4803F18D10020BF
:102B68007047D0F85404C0F30040704710B5094CC2
:102B780040F247332246084908485EF099F840F287
:102B8800473120460EF046FB012070470120704770
:102B980001207047701607009C2F0700A416070035
:102BA80010B588B00DF1070105200BF085FA044631
:102BB80060B99DF807304BB1194B1B6803F0070348
:102BC800022B06D8002108461CF020FF204608B03A
:102BD80010BD144B079302238DF8003000238DF8A5
:102BE80001308DF802308DF80330009A06921946AC
:102BF80063F3000163F3410163F3820163F3C501E9
:102C0800032262F38811082262F3522163F3DE4142
:102C180063F3DF7106AA024812F080F8D2E700BF1A
:102C280054160020C4160700B0B582B000AF2F4B71
:102C38000122D3E8EF1FC3E8E02F0028F9D160F0A4
:102C4800B5FCFFF7ADFF0146002846D0284B1B68AE
:102C580013F0070F3BD06C4688B06B4613F1100297
:102C68003ED010206AB18446042801DD214D5D6103
:102C7800BCF1080F00DD9961BCF10C0F01DD9D214D
:102C8800D9610F282FDD4FF0100C3AB104213971AA
:102C980000217971B971F9717868186100216FF3B1
:102CA80000016FF341016FF382016FF3C501012346
:102CB80063F388110CF47D7C6CF352216FF3DE41D1
:102CC8006FF3DF7100230A4812F028F8A546404048
:102CD80080F311884FF0030002DF0837BD46B0BD0E
:102CE8006FF00040BEE76FF01B0CCEE76C3B002096
:102CF80054160020D8160700F0B583B000AF5CF07A
:102D0800F1FD002849D00146B24B1B6813F0070FAC
:102D18003DD06C4688B06B4613F1100200F0BF82BC
:102D280010206AB18446042801DDAB4D5D61BCF119
:102D3800080F00DD9961BCF10C0F01DDA821D961F4
:102D48000F2840F3AF824FF0100C3AB104213971CB
:102D580000217971B971F9717868186100216FF3F0
:102D680000016FF341016FF382016FF3C501012385
:102D780063F388110CF47D7C6CF352216FF3DE4110
:102D88006FF3DF710023934811F0C8FFA546404058
:102D980080F311884FF0030002DF0CF021FA01469E
:102DA800002848D08B4B1B6813F0070F3DD06C46AA
:102DB80088B06B4613F1100200F0778210206AB1D8
:102DC8008446042801DD844D5D61BCF1080F00DDF7
:102DD8009961BCF10C0F01DDAB21D9610F2840F3DB
:102DE80067824FF0100C3AB10421397100217971D2
:102DF800B971F9717868186100216FF300016FF3F8
:102E080041016FF382016FF3C501012363F3881158
:102E18000CF47D7C6CF352216FF3DE416FF3DF71AC
:102E280000236C4811F07AFFA546404080F31188D2
:102E38004FF0030002DF0BF061F90146002848D08B
:102E4800644B1B6813F0070F3DD06C4688B06B4687
:102E580013F1100200F02F8210206AB18446042872
:102E680001DD5D4D5D61BCF1080F00DD9961BCF1CC
:102E78000C0F01DDAE21D9610F2840F31F824FF0FE
:102E8800100C3AB10421397100217971B971F971C5
:102E98007868186100216FF300016FF341016FF347
:102EA80082016FF3C501012363F388110CF47D7C63
:102EB8006CF352216FF3DE416FF3DF710023454855
:102EC80011F02CFFA546404080F311884FF0030015
:102ED80002DF0DF027FD5CF019FD0146002848D0FF
:102EE8003C4B1B6813F0070F3DD06C4688B06B460F
:102EF80013F1100200F0E58110206AB1844604281D
:102F080001DD354D5D61BCF1080F00DD9961BCF153
:102F18000C0F01DDB321D9610F2840F3D5814FF0A3
:102F2800100C3AB10421397100217971B971F97124
:102F38007868186100216FF300016FF341016FF3A6
:102F480082016FF3C501012363F388110CF47D7CC2
:102F58006CF352216FF3DE416FF3DF7100231D48DC
:102F680011F0DCFEA546404080F311884FF00300C5
:102F780002DF00F0E1FA014600284ED0154B1B682D
:102F880013F0070F43D06C4688B06B4613F110025C
:102F980000F09D8110206AB18446042801DD0E4DA1
:102FA8005D61BCF1080F00DD9961BCF10C0F01DD1A
:102FB800B621D9610F2840F38D814FF0100C6AB10A
:102FC8000421397100217971B971F9717868186132
:102FD80004E000BF54160020D816070000216FF344
:102FE80000016FF341016FF382016FF3C501012303
:102FF80063F388110CF47D7C6CF352216FF3DE418E
:103008006FF3DF710023B54811F088FEA5464040F4
:1030180080F311884FF0030002DF0DF069FB0146D1
:10302800002848D0AD4B1B6813F0070F3DD06C4605
:1030380088B06B4613F1100200F0588110206AB175
:103048008446042801DDA64D5D61BCF1080F00DD52
:103058009961BCF10C0F01DDB921D9610F2840F34A
:1030680048814FF0100C3AB104213971002179716F
:10307800B971F9717868186100216FF300016FF375
:1030880041016FF382016FF3C501012363F38811D6
:103098000CF47D7C6CF352216FF3DE416FF3DF712A
:1030A80000238E4811F03AFEA546404080F311886F
:1030B8004FF0030002DF8B480DF002FB01460028A9
:1030C80048D0864B1B6813F0070F3DD06C4688B07C
:1030D8006B4613F1100200F00F8110206AB184468C
:1030E800042801DD7E4D5D61BCF1080F00DD9961AA
:1030F800BCF10C0F01DDBC21D9610F2840F3FF8022
:103108004FF0100C3AB10421397100217971B9716D
:10311800F9717868186100216FF300016FF34101BC
:103128006FF382016FF3C501012363F388110CF477
:103138007D7C6CF352216FF3DE416FF3DF71002366
:10314800664811F0EBFDA546404080F311884FF02A
:10315800030002DF634BDB6813F4FE6F40F0D2809C
:103168000CF08CFE0146002848D05C4B1B6813F01D
:10317800070F3DD06C4688B06B4613F1100200F083
:10318800158110206AB18446042801DD544D5D6123
:10319800BCF1080F00DD9961BCF10C0F01DDC621FF
:1031A800D9610F2840F305814FF0100C3AB1042182
:1031B800397100217971B971F97178681861002144
:1031C8006FF300016FF341016FF382016FF3C501E3
:1031D800012363F388110CF47D7C6CF352216FF3A7
:1031E800DE416FF3DF7100233C4811F097FDA546DF
:1031F800404080F311884FF0030002DF3A4805F0A1
:1032080041FE0146002800F0E280344B1B6813F0B1
:10321800070F3DD06C4688B06B4613F1100200F0E2
:10322800CB8010206AB18446042801DD2C4D5D61F5
:10323800BCF1080F00DD9961BCF10C0F01DDCF2155
:10324800D9610F2840F3BB804FF0100C3AB104212C
:10325800397100217971B971F971786818610021A3
:103268006FF300016FF341016FF382016FF3C50142
:10327800012363F388110CF47D7C6CF352216FF306
:10328800DE416FF3DF710023144811F047FDA546B6
:10329800404080F311884FF0030002DF97E06FF0A1
:1032A80000403EE56FF01B0C4FE56FF0004086E5EF
:1032B8006FF01B0C97E56FF00040CEE56FF01B0C2C
:1032C800DFE56FF0004018E66FF01B0C29E66FF0A1
:1032D800004060E66FF01B0C71E600BF541600203A
:1032E800D8160700583B0020312C00006FF0004032
:1032F800A5E66FF01B0CB6E66FF00040EEE66FF047
:103308001B0CFFE60CF0B6FE10F1130F3FF428AFCC
:1033180000283FF425AF854B1B6813F0070F38D002
:103328006D4688B06B4613F1100239D010215AB19E
:103338000C46042901DD7E4E5E61082C00DD986193
:103348000C2C01DDC120D8610F292CDD10243AB1E5
:103358000421397100217971B971F971786818619E
:1033680000216FF300016FF341016FF382016FF3E6
:10337800C501012363F3881104F47D7464F35221B9
:103388006FF3DE416FF3DF710023684811F0C6FC6C
:10339800AD46404080F311884FF0030002DFDFE6BE
:1033A8006FF00041C3E76FF01B04D0E76FF00040F7
:1033B800E8E66FF01B0CF9E66FF0004032E76FF0BB
:1033C8001B0C43E740F6CD40002142F0FBF8594B77
:1033D800D3E8AF3F002BF5D05CF0B8FA01460028DF
:1033E80047D0524B1B6813F0070F3CD06C4688B08F
:1033F8006B4613F1100200F08D8010206AB18446EC
:10340800042801DD4A4D5D61BCF1080F00DD9961BA
:10341800BCF10C0F01DDD721D9610F287DDD4FF0FC
:10342800100C3AB10421397100217971B971F9711F
:103438007868186100216FF300016FF341016FF3A1
:1034480082016FF3C501012363F388110CF47D7CBD
:103458006CF352216FF3DE416FF3DF7100233348C1
:1034680011F05CFCA546404080F311884FF0030042
:1034780002DF01F069F902F035F90146002846D06B
:103488002A4B1B6813F0070F3BD06C4688B06B467D
:1034980013F1100244D010206AB18446042801DDDB
:1034A800234D5D61BCF1080F00DD9961BCF10C0F83
:1034B80001DDDC21D9610F2835DD4FF0100C3AB160
:1034C8000421397100217971B971F971786818612D
:1034D80000216FF300016FF341016FF382016FF375
:1034E800C501012363F388110CF47D7C6CF3522130
:1034F8006FF3DE416FF3DF7100230C4811F00EFC0F
:10350800A546404080F311884FF0030002DF02F027
:1035180087F8FCE76FF0004070E76FF01B0C80E75E
:103528006FF00040B8E76FF01B0CC8E75416002096
:10353800D81607006C3B002090B597B000AF8F4BB2
:103548001B6803F00703022B73D96C4600233B71F9
:1035580002237B710122BA710322FA713B720423A0
:103568007B728CB0EC461CF110022DD04FF01A0E75
:103578002AB1BEF1040F02DD814BCCF814300023D0
:103588003B7102237B712AB1BEF1080F02DD7D4B2E
:10359800CCF818300123BB710323FB712AB1BEF1AB
:1035A8000C0F02DD784BCCF81C3002233B7204234D
:1035B8007B72B2B1BEF1100F02DD744BCCF8203033
:1035C8000CF1240300210AE06FF0004ED0E701F16E
:1035D8005800384410F8540C03F8010B0131052940
:1035E800F5D9BEF1190F42DD1A234AB10521397008
:1035F80000217970B9700321F9703868CCF810008F
:1036080000216FF300016FF341016FF382016FF343
:10361800C501032060F38811C3F3090363F3522142
:103628006FF3DE416FF3DF710023544811F076FB2E
:10363800A546524B1B6803F00703022B1AD807F163
:103648000F000DF061F9FB7BBBB3012B40F08780C5
:103658004F4811F04BF9044628B9484B1B6803F052
:103668000703022B58D820465C37BD4690BD6FF043
:103678001B03BAE7474B7B6202233B7100237B7134
:10368800BB71FB717A683A62194663F3000163F310
:10369800410163F3820163F3C501032262F38811D8
:1036A800082262F3522163F3DE4163F3DF7107F10D
:1036B8002002324811F032FBC1E7374811F016F901
:1036C80004460028CFD12D4B1B6803F00703022BBB
:1036D800C9D9324B7B6502233B7100237B71BB71D7
:1036E800FB717A683A65194663F3000163F3410197
:1036F80063F3820163F3C501032262F38811082290
:1037080062F3522163F3DE4163F3DF7107F1500284
:103718001A4811F003FBA6E7214BFB6302233B7118
:1037280000237B71BB71FB717A68BA63194663F336
:10373800000163F3410163F3820163F3C5010322CE
:1037480062F38811082262F3522163F3DE4163F3C6
:10375800DF7107F13802094811F0E0FA83E7114CEC
:1037680034232246104911485DF0A2FA10485DF052
:103778009FFA342120460DF04DFD00BF2C16002085
:1037880004170700D817070050170700001807008C
:10379800241807005817070028180700741707008F
:1037A80094170700B41707009C2F0700A4160700FA
:1037B800C4170700044B01221A701A711A730349BF
:1037C80099609A705A707047E03B002000770100BA
:1037D8002DE9F04FADF69C3D02AF0023C7F8843BBE
:1037E80098462BE16FF000405FE00F2870DD102154
:1037F8003AB10420387700207877B877F877F869F5
:1038080018616FF300066FF341066FF382066FF3DA
:10381800C506012363F3881601F47D7363F352260A
:103828006FF3DE466FF3DF7600233146854811F0EB
:1038380075FAC546404080F311884FF0030002DF57
:1038480004EB440007F5396303EB84037E4A1268EE
:1038580053F8341C07F5777303EB80106CF0BAFA51
:1038680029467A480DF0C8FA0134092C33DC07F6EA
:103878005C3303EB84054FF0FF324FF0FF33CDE9A3
:103888000023714A294671480DF082FA0146002842
:10389800D6D06C4B1B6813F0070FCBD0E84688B026
:1038A80002AB13F110029DD01020002A9DD084464F
:1038B800042803DDDFF8A8E1C3F814E0BCF1080F21
:1038C80000DD9961BCF10C0F8FDD7621D9618CE7A1
:1038D8006FF01B018CE7D7F80C805D4B1B79002B30
:1038E80000F0A1805B4B1B68002B40F0BB8007F603
:1038F8008433594A4FF4F06107F5777004F07EF984
:103908000446002800F08F804E4B1B6813F0070F09
:1039180041D06D4600233B7702237B7788B002A90C
:1039280011F1100200F05B814FF00E0C22B1BCF1D6
:10393800040F01DD494B4B6100233B7602237B7664
:10394800002A40F04F81BCF10D0F40F35E810E2339
:1039580042B10320387700207877B8770120F877CC
:10396800F86908616FF300096FF341096FF3820981
:103978006FF3C509012161F38819C3F3090363F3E0
:1039880052296FF3DE496FF3DF79002349462D484A
:1039980011F0C4F9AD462B4B1B6813F0070F3CD050
:1039A8006D4688B002AB13F1100200F0318110218E
:1039B8006AB10846042903DDDFF8A4C0C3F814C0BF
:1039C800082800DD9C610C2801DD9020D8610F29B2
:1039D80040F3218110213AB104203877002078770C
:1039E800B877F877F86918616FF3000A6FF3410A3E
:1039F8006FF3820A6FF3C50A012363F3881A01F48F
:103A08007D7363F3522A6FF3DE4A6FF3DF7A002384
:103A180051460C4811F082F9AD46404080F31188B8
:103A28004FF0030002DFB8F57A7F00F0F78008F165
:103A38000108074B1B79002B40F049810024C7F887
:103A48000C8012E77C150020783B0020380300200A
:103A5800E03B00207C3B0020703B00209CAB070033
:103A6800D81607009D4A00929D4A4FF4707107F1DD
:103A78001C000CF063FF034600284AD0994A1268DC
:103A880012F0070F3FD06C4688B002A911F110025E
:103A980000F0998010206AB10546042803DDDFF89C
:103AA80050C2C1F814C0082D00DD8B610C2D01DD5A
:103AB8008523CB610F2840F3898010233AB1042075
:103AC800387600207876B876F876B8690861B968EB
:103AD8006FF300016FF341016FF382016FF3C501CA
:103AE8000846012161F38810014603F47D7363F3EE
:103AF80052216FF3DE416FF3DF71B960002379481B
:103B080011F00CF9A546404080F311884FF00300EE
:103B180002DF07F11403009307F5777310224FF4BF
:103B2800707107F11C005CF08AF8034600283FF426
:103B3800DEAE6C4A126812F0070F3DD06C4688B0B2
:103B480002A911F1100244D010206AB105460428D8
:103B580003DDDFF89CC1C1F814C0082D00DD8B61BE
:103B68000C2D01DD8A23CB610F2835DD10233AB1F6
:103B78000420387600207876B876F876B869086137
:103B880079686FF300016FF341016FF382016FF3FE
:103B9800C5010846012161F38810014603F47D73CD
:103BA80063F352216FF3DE416FF3DF717960002315
:103BB8004C4811F0B3F8A546404080F311884FF007
:103BC800030002DF93E66FF0004064E76FF01B0329
:103BD80074E76FF00040B8E76FF01B03C7E76FF0BA
:103BE800004CA3E6BCF1080F01DD3F4B8B6101F1EE
:103BF8001C03002006E007F1180E1EF800E003F889
:103C080001EB01300128F6D99DE66FF01B039FE612
:103C18006FF00041CCE66FF01B01DCE607F6883256
:103C280007F68C3131480DF00FF9804600283FF433
:103C380000AF2C4B1B6813F0070F39D06C4688B0C7
:103C480002AB13F110023CD0102162B108460429DE
:103C580001DD274D5D61082801DDC3F818800C28B7
:103C680001DD9720D8610F292EDD10213AB10420FB
:103C7800387700207877B877F877F86918616FF3A4
:103C8800000B6FF3410B6FF3820B6FF3C50B01232E
:103C980063F3881B01F47D7161F3522B6FF3DE4BE4
:103CA8006FF3DF7B002359460E4811F037F8A5461D
:103CB800404080F311884FF0030002DF4FF0000806
:103CC800B7E66FF00041C0E76FF01B01CEE7D7F809
:103CD800841B084B186801F045FCAFE6743B0020D4
:103CE800803B00207C1500202C180700380300209A
:103CF800D8160700703B0020F0B58BB008AFFFF76F
:103D080059FD8F4B93F86430002B43D08D4B93F8BB
:103D18006430002B00F0E8808B4B1A6900920FCBBF
:103D280004F024FB0446002800F00D82874B1B6832
:103D380013F0070F00F0C0816D4600233B7102238A
:103D48007B7188B0AC4615F1100200F08A810E2014
:103D580022B1042802DD7E4BCCF8143000233B70DE
:103D680002237B70002A00F07F81082802DD794B4E
:103D7800CCF818300CF11C030021012900F27481E1
:103D880001F1080606EB070E1EF808EC03F801EB34
:103D98000131F2E76A480DF035F905460028B5D03B
:103DA8006A4B1B6813F0070F4FD06E4600233B7118
:103DB80002237B7188B0344616F1100212D00E200F
:103DC8001AB1042801DD624B636100233B700223B2
:103DD8007B70A2B1082801DD5F4BA36104F11C03CD
:103DE80000210AE06FF00040EAE701F1080CBC444A
:103DF8001CF808CC03F801CB01310129F5D90D28AD
:103E080069DD0E2342B10321397100217971B9713D
:103E18000121F9717868206100216FF300016FF3C7
:103E280041016FF382016FF3C501012060F388112E
:103E3800C3F3090363F352216FF3DE416FF3DF71BC
:103E48000023424810F06AFFB546404B1B6813F048
:103E5800070F39D06E4688B0334616F110023DD0B0
:103E6800102162B10846042901DD3C4C5C61082838
:103E780000DD9D610C2802DD40F21F10D8610F297A
:103E88002FDD10243AB10421397100217971B971FB
:103E9800F9717868186100216FF300016FF341012F
:103EA8006FF382016FF3C501012363F3881104F4F2
:103EB8007D7464F352216FF3DE416FF3DF710023E9
:103EC800224810F02BFFB546404080F311884FF090
:103ED800030002DF1AE76FF01B0393E76FF000415E
:103EE800BFE76FF01B04CDE716480DF08BF80546C9
:103EF80000283FF411AF154B1B6813F0070F61D072
:103F08006E4600233B7102237B7188B0344616F15C
:103F1800100212D00E201AB1042801DD0C4B636187
:103F280000233B7002237B7032B3082801DD0C4B61
:103F3800A36104F11C0300211CE06FF00040EAE7D4
:103F4800A003002038030020E03B00207C1500205F
:103F58009CAB0700741807003C180700D816070028
:103F68005818070001F1080CBC441CF808CC03F8E9
:103F780001CB01310129F5D90D2869DD0E2342B1A4
:103F88000321397100217971B9710121F9717868BA
:103F9800206100216FF300016FF341016FF382018B
:103FA8006FF3C501012060F38811C3F3090363F3BC
:103FB80052216FF3DE416FF3DF710023B54810F033
:103FC800ADFEB546B34B1B6813F0070F39D06E46EC
:103FD80088B0334616F110023DD0102162B1084670
:103FE800042901DDAC4C5C61082800DD9D610C28CA
:103FF80002DD4FF49270D8610F292FDD10243AB1F9
:104008000421397100217971B971F97178681861E1
:1040180000216FF300016FF341016FF382016FF329
:10402800C501012363F3881104F47D7464F35221FC
:104038006FF3DE416FF3DF710023964810F06EFED8
:10404800B546404080F311884FF0030002DF63E675
:104058006FF01B0393E76FF00041BFE76FF01B049D
:10406800CDE76FF0004073E60D2840F31D810E2365
:104078004AB10321397100217971B9710121F971AE
:104088007868CCF8100000216FF300016FF341014C
:104098006FF382016FF3C501012060F38811C3F348
:1040A800090363F352216FF3DE416FF3DF710023DD
:1040B800784810F033FEAD46764B1B6813F0070FB7
:1040C8003BD06D4688B02B4615F1100200F0EF800A
:1040D800102162B10846042901DD6F4E5E6108288F
:1040E80000DD9C610C2802DD4FF49470D8610F2923
:1040F80040F3E08010243AB104213971002179712C
:10410800B971F9717868186100216FF300016FF3D4
:1041180041016FF382016FF3C501012363F3881135
:1041280004F47D7464F352216FF3DE416FF3DF71A1
:104138000023584810F0F2FDAD46404080F3118846
:104148004FF0030002DF554B01221A741B7923B18B
:10415800534B1B68002B00F0B0800AF00BFB0146A4
:10416800002846D04B4B1B6813F0070F3BD06D4619
:1041780088B02B4615F1100200F00681102062B1BC
:104188000446042801DD444E5E61082C00DD996177
:104198000C2C02DD40F23B11D9610F2840F3F78067
:1041A80010243AB10421397100217971B971F9717A
:1041B8007868186100216FF300016FF341016FF314
:1041C80082016FF3C501012363F3881104F47D7440
:1041D80064F352216FF3DE416FF3DF7100232D4842
:1041E80010F09CFDAD46404080F311884FF003006D
:1041F80002DF2C4803F0AAFA0146002846D0254BD6
:104208001B6813F0070F3BD06D4688B02B4615F19D
:10421800100200F0BF80102062B10446042801DDBE
:104228001D4E5E61082C00DD99610C2C02DD4FF4F7
:104238009F71D9610F2840F3B08010243AB104214E
:10424800397100217971B971F971786818610021A3
:104258006FF300016FF341016FF382016FF3C50142
:10426800012363F3881104F47D7464F352216FF31E
:10427800DE416FF3DF710023064810F04FFDAD46B5
:10428800404080F311884FF0030002DF0C37BD4631
:10429800F0BD00BF7C150020D8160700E03B0020C9
:1042A800F43B0020380300206FF01B03E0E66FF0BA
:1042B80000410EE76FF01B041DE700220023CDE943
:1042C800062300230493032203920293019300938D
:1042D800334B41F64C52334933483EF02DFB334BB8
:1042E800186033493EF0F4F8014600283FF435AF32
:1042F800304B1B6813F0070F39D06D4688B02B463A
:1043080015F110023AD0102062B10446042801DDEC
:10431800294E5E61082C00DD99610C2C02DD40F20B
:104328003311D9610F282CDD10243AB104213971D9
:1043380000217971B971F9717868186100216FF3FA
:1043480000016FF341016FF382016FF3C50101238F
:1043580063F3881104F47D7363F352216FF3DE4134
:104368006FF3DF710023134810F0D8FCAD464040CE
:1043780080F311884FF0030002DFEEE66FF0004093
:10438800C2E76FF01B04D0E76FF00040F7E66FF06C
:104398001B0406E76FF000403EE76FF01B044DE793
:1043A800D937000048D00020A81C0020F43B00208A
:1043B8008C1807007C150020D816070010B5044695
:1043C800FFF79AFC034A082120465DF0B1FA002065
:1043D80010BD00BF94180700F0B58BB002AFAC4B0E
:1043E8001B7C3BBBAB4B1B6813F0060F00F08F81A7
:1043F800A94BFB6102223A7100237B71BB71FB71EF
:104408007968B961194663F3000163F3410163F305
:10441800820163F3C50162F38811082262F3522115
:1044280063F3DE4163F3DF7107F11802994810F076
:1044380075FC6CE10AF0D4F9014600284AD0954B86
:104448001B6813F0070F3FD06D4688B002AB13F11D
:10445800100212D0102062B10446042801DD8F4EEC
:104468005E61082C00DD99610C2C09DD40F25111C8
:10447800D9610F2851DD102404E06FF00040EAE70D
:104488006FF01B043AB10421397100217971B971B7
:10449800F9717868186100216FF300016FF3410129
:1044A8006FF382016FF3C501012363F3881104F4EC
:1044B8007D7363F352216FF3DE416FF3DF710023E5
:1044C800744810F02BFCAD46404080F311884FF043
:1044D800030002DF03F09EF9014600284DD06D4B22
:1044E8001B6813F0070F42D06D4688B002AB13F17A
:1044F800100215D0102062B10446042801DD674E71
:104508005E61082C00DD99610C2C0CDD4FF4AA715A
:10451800D9610F2860DD102407E06FF01B04B1E7B4
:104528006FF00040E7E76FF01B043AB104213971DE
:1045380000217971B971F9717868186100216FF3F8
:1045480000016FF341016FF382016FF3C50101238D
:1045580063F3881104F47D7363F352216FF3DE4132
:104568006FF3DF7100234B4810F0D8FBAD46404095
:1045780080F311884FF0030002DF454B1A6900925F
:104588000FCB03F0E5FD0446002800F0B780414B4F
:104598001B6813F0070F57D06D4600233B710223A9
:1045A8007B7188B00DF1080C1CF1100217D00E2099
:1045B80022B1042802DD3A4BCCF8143000233B70BA
:1045C80002237B70CAB1082802DD364BCCF81830BC
:1045D8000CF11C0300210EE06FF01B04A5E76FF03F
:1045E8000040E5E701F1200606EB070E1EF820EC77
:1045F80003F801EB01310129F4D90D2842DD0E231E
:104608004AB10321397100217971B9710121F97118
:104618007868CCF8100000216FF300016FF34101B6
:104628006FF382016FF3C501012060F38811C3F3B2
:10463800090363F352216FF3DE416FF3DF71002347
:10464800144810F06BFBAD46124B1B6813F0070FB4
:104658004ED06D4688B002AB13F1100215D0102170
:1046680062B10846042901DD0C4E5E61082800DDB0
:104678009C610C2818DD4FF4AC70D8610F2949DD16
:10468800102413E06FF01B03BAE76FF00041E7E76F
:10469800E03B00207C150020AC180700D816070066
:1046A8009CAB0700C81807006FF01B043AB104213F
:1046B800397100217971B971F9717868186100212F
:1046C8006FF300016FF341016FF382016FF3C501CE
:1046D800012363F3881104F47D7363F352216FF3AC
:1046E800DE416FF3DF7100230C4810F017FBAD4675
:1046F800404080F311884FF0030002DF084B00228E
:104708001A7408480CF0D8FB07480CF0D5FB24377E
:10471800BD46F0BD6FF01B04C8E700BF7C15002044
:10472800E03B002038030020A003002010B5044619
:10473800FFF752FE034A082120465DF0F9F80020F1
:1047480010BD00BFE0180700B0B582B000AF03F09D
:1047580079F8002849D00146534B1B6813F0070F1E
:104768003DD06C4688B06B4613F1100200F08F8084
:10477800102072B18446042801DD4C4D5D61BCF106
:10478800080F00DD9961BCF10C0F02DD4FF4BD711B
:10479800D9610F287EDD4FF0100C3AB10421397130
:1047A80000217971B971F9717868186100216FF386
:1047B80000016FF341016FF382016FF3C50101231B
:1047C80063F388110CF47D7C6CF352216FF3DE41A6
:1047D8006FF3DF710023344810F0A0FAA54640407B
:1047E80080F311884FF0030002DF08F001FF0AF0A0
:1047F80007F80146002847D02B4B1B6813F0070F1A
:104808003CD06C4688B06B4613F1100245D010209E
:1048180072B18446042801DD244D5D61BCF1080FA6
:1048280000DD9961BCF10C0F02DD40F27D11D96108
:104838000F2835DD4FF0100C3AB1042139710021F1
:104848007971B971F9717868186100216FF3000105
:104858006FF341016FF382016FF3C501012363F325
:1048680088110CF47D7C6CF352216FF3DE416FF3F9
:10487800DF7100230C4810F051FAA546404080F340
:1048880011884FF0030002DF0837BD46B0BD6FF056
:1048980000406EE76FF01B0C7FE76FF00040B7E752
:1048A8006FF01B0CC8E700BF7C150020D816070066
:1048B800014B1870704700BF00150020B0B5A2B0BA
:1048C80000AFC7E900013B794BB939688B1E042B4F
:1048D80000F2E280DFE803F05D322F88B400924BEB
:1048E8001B6813F0060F02D18837BD46B0BD8F4B49
:1048F800C7F8843002223A7300237B73BB73FB73BF
:10490800F968C7F88010194663F3000163F34101A1
:1049180063F3820163F3C50162F38811082262F32D
:10492800522163F3DE4163F3DF7107F180027E48B1
:1049380010F0F4F9D8E706F0E3FED5E706F070FECC
:104948000028D1D0784B1B6813F0060FCCD0784BD9
:104958007B6502223A7300237B73BB73FB73F96890
:104968003965194663F3000163F3410163F382017A
:1049780063F3C50162F38811082262F3522163F3DD
:10498800DE4163F3DF7107F15002674810F0C6F9A2
:10499800AAE706F07DFE0028A6D0634B1B6813F03B
:1049A800060FA1D0634BFB6602223A7300237B7388
:1049B800BB73FB73F968B966194663F3000163F3C7
:1049C800410163F3820163F3C50162F38811082290
:1049D80062F3522163F3DE4163F3DF7107F168028A
:1049E800514810F09BF97FE75BF00DF84E4B1B68C0
:1049F80003F00703022B7FF677AF4F4BFB630223CD
:104A08003B7300237B73BB73FB73FA68BA63194665
:104A180063F3000163F3410163F3820163F3C501AA
:104A2800032262F38811082262F3522163F3DE4104
:104A380063F3DF7107F138023B4810F06FF953E771
:104A48005AF0DBFF384B1B6803F00703022B7FF695
:104A58004BAF3A4B7B6202233B7300237B73BB73E0
:104A6800FB73FA683A62194663F3000163F3410184
:104A780063F3820163F3C501032262F388110822FC
:104A880062F3522163F3DE4163F3DF7107F1200221
:104A9800254810F043F927E7234B1B6813F0060F4E
:104AA8003FF422AF6C4688B0EC461CF1100232D0BD
:104AB8000C234AB11846042B02DD214DCCF81450C2
:104AC80008282BDDCCF818100B2B2ADD0C2342B15B
:104AD8000321397300217973B973F973F868CCF835
:104AE800100000216FF300016FF341016FF38201A1
:104AF8006FF3C501022060F3881103F47B7363F33D
:104B080052216FF3DE416FF3DF710023064810F086
:104B180005F9A546E8E66FF00043CAE76FF01B0306
:104B2800D5E76FF01B03D2E798160020B4190700E9
:104B3800CC190700E8190700041A0700101A070023
:104B48001C1A0700F0B58BB000AF012823D002284B
:104B580000F08180002800F0DC809B4B1B6813F07C
:104B6800060F1BD06C4688B06B4613F1100200F09C
:104B780000810C214AB18C46042901DD934D5D6109
:104B8800BCF1080F40F3F88098610B2940F31981B4
:104B98004FF00C0CF2E08E4B1B7813B92C37BD4646
:104BA800F0BDFFF7A9F80020FFF782FE02200AF007
:104BB800A7FA01460028F1D0834B1B6813F0070FB2
:104BC8003FD06D4688B06B4613F1100212D010200A
:104BD80062B10446042801DD7E4E5E61082C00DDCA
:104BE80099610C2C09DD4FF4B271D9610F282FDDC2
:104BF800102404E06FF00040EAE76FF01B043AB1BC
:104C08000421397300217973B973F973F86818614D
:104C180000216FF300016FF341016FF382016FF31D
:104C2800C501012363F3881104F47D7363F35221F2
:104C38006FF3DE416FF3DF710023634810F06EF805
:104C4800AD46404080F311884FF0030002DFA5E72E
:104C58006FF01B04D3E75E4B1B78012B9ED001201D
:104C6800FFF726FEFFF7B8FB02200AF0D9F9014644
:104C7800002893D0544B1B6813F0070F3FD06D46A4
:104C880088B06B4613F1100212D0102062B10446AE
:104C9800042801DD4F4E5E61082C00DD99610C2C63
:104CA80009DD40F27311D9610F282FDD102404E0CB
:104CB8006FF00040EAE76FF01B043AB10421397342
:104CC80000217973B973F973F868186100216FF3DB
:104CD80000016FF341016FF382016FF3C5010123F6
:104CE80063F3881104F47D7363F352216FF3DE419B
:104CF8006FF3DF710023344810F010F8AD464040E0
:104D080080F311884FF0030002DF47E76FF01B04C0
:104D1800D3E707F10801381D06F060FC00283FF4CE
:104D28003DAF294B1B6813F0060F3FF437AF2A4BF2
:104D38007B6202223A7300237B73BB73FB73F968AF
:104D48003962194663F3000163F3410163F3820199
:104D580063F3C50162F38811082262F3522163F3F9
:104D6800DE4163F3DF7107F1200217480FF0D6FF29
:104D780014E76FF00041FDE66FF01B0C3AB1032118
:104D8800397300217973B973F973F86818610021D0
:104D98006FF300016FF341016FF382016FF3C501F7
:104DA800022363F388110CF47B7363F352216FF3CE
:104DB800DE416FF3DF71002303480FF0AFFFA54614
:104DC800ECE66FF01B0CD9E798160020581A07007C
:104DD80000150020D8160700401A07002DE9F04FEB
:104DE8008FB002AF81460C4690461E4602F0FEFE8A
:104DF800934D2D781DB13437BD46BDE8F08F8246FE
:104E080000237B6107F10C0207F110018D480CF0BB
:104E18001BF8014600284ED08B4B1B6813F0070F78
:104E280043D06D4688B002AB13F1100216D01020A3
:104E38007AB18446042803DDDFF81CE2C3F814E0E5
:104E4800BCF1080F00DD9961BCF10C0F09DD85216B
:104E5800D9610F2867DD4FF0100C04E06FF00040B7
:104E6800E6E76FF01B0C3AB1042139720021797220
:104E7800B972F972B868186100216FF300016FF315
:104E880041016FF382016FF3C501012363F38811B8
:104E98000CF47D7363F352216FF3DE416FF3DF711E
:104EA800002369480FF03AFFAD46404080F311886F
:104EB8004FF0030002DF3B69042B40F28A80624B0B
:104EC8001B6813F0060F31D100220023CDE900231F
:104ED8003A1D39465B480BF05BFF0146002874D049
:104EE800594B1B6813F0070F69D06D4688B002ABA9
:104EF80013F110023CD010207AB18446042803DD57
:104F0800DFF854E1C3F814E0BCF1080F00DD996143
:104F1800BCF10C0F2FDD9121D9610F2840F3898056
:104F28004FF0100C29E06FF01B0C9CE7474BFB621D
:104F380002223A7200237B72BB72FB72B968B962B3
:104F4800194663F3000163F3410163F3820163F3DC
:104F5800C50162F38811082262F3522163F3DE412E
:104F680063F3DF7107F1280237480FF0D7FEABE78C
:104F78006FF00040C0E76FF01B0C3AB104213972A2
:104F880000217972B972F972B868186100216FF35B
:104F980000016FF341016FF382016FF3C501012333
:104FA80063F388110CF47D7363F352216FF3DE41D0
:104FB8006FF3DF71002324480FF0B0FEAD46404088
:104FC80080F311884FF0030002DF39461D480BF0CB
:104FD80013FF0022002307F114011A480BF0B2FD59
:104FE8000546002800F0BA80174B1B6813F0070F1E
:104FF80065D0EB4600233B7202237B7288B00DF12B
:10500800080C1CF1100217D00E2022B1042802DD72
:105018000F4BCCF8143000233B7102237B713AB359
:10502800082802DD0B4BCCF818300CF11C030021CA
:105038001CE06FF01B0CA0E76FF00040E5E700BF35
:10504800001500200804002098160020781A070090
:105058009CAB07008C1A0700D816070001F1300E28
:10506800BE441EF82CEC03F801EB01310129F5D9F7
:105078000D2843DD0E234AB10321397200217972CC
:10508800B9720121F972B868CCF8100000216FF3E9
:1050980000016FF341016FF382016FF3C501012035
:1050A80060F38811C3F3090363F352216FF3DE4100
:1050B8006FF3DF710023A1480FF030FEDD469F4BF0
:1050C8001B6813F0070F43D0EB4688B002AB13F10F
:1050D800100216D010216AB10846042903DDDFF852
:1050E80070C2C3F814C0082800DD9D610C280BDDD0
:1050F8009720D8610F2972DD102507E06FF01B0398
:10510800B9E76FF00041E6E76FF01B053AB10421FB
:10511800397200217972B972F972B8681861002180
:105128006FF300016FF341016FF382016FF3C50163
:10513800012363F3881105F47D7363F352216FF340
:10514800DE416FF3DF7100237C480FF0E7FDDD4699
:10515800404080F311884FF0030002DFFB2C41D858
:105168002246494678696AF035FE7B6983F8FF80F4
:10517800C3F8FB40C3F80061C3F804A14FF484727C
:1051880007F114016E480BF007FD054600283FF4AF
:1051980032AE6A4B1B6813F0070F00F00B816E46A6
:1051A80000233B7202237B7288B002AC14F1100218
:1051B80000F0C0800E201AB1042801DD614B636144
:1051C80000233B7102237B71002A00F0CD80082860
:1051D80001DD5D4BA36104F11C030021C2E06FF007
:1051E8001B0593E7554B1B6813F0070F4FD06D460F
:1051F80000233B7202237B7288B002AC14F11002C8
:1052080012D00E201AB1042801DD4E4B6361002331
:105218003B7102237B71A2B1082801DD4B4BA361CE
:1052280004F11C0300210AE06FF00040EAE701F1F5
:1052380030063E4416F82C6C03F8016B0131012945
:10524800F5D90D2842DD0E2342B103213972002120
:105258007972B9720121F972B868206100216FF37F
:1052680000016FF341016FF382016FF3C501012063
:1052780060F38811C3F3090363F352216FF3DE412E
:105288006FF3DF7100232D480FF048FDAD462B4B1F
:105298001B6813F0070F43D06D4688B002AB13F1BB
:1052A800100216D010216AB10846042901DD284CE5
:1052B8005C61082802DD6FF00B049C610C280BDD93
:1052C8009A20D8610F2932DD102407E06FF01B0304
:1052D800BAE76FF00041E6E76FF01B043AB104212A
:1052E800397200217972B972F972B86818610021AF
:1052F8006FF300016FF341016FF382016FF3C50192
:10530800012363F3881104F47D7464F352216FF36D
:10531800DE416FF3DF71002308480FF0FFFCAD4654
:10532800404080F311884FF0030002DF63E56FF01F
:105338001B04D3E76FF000403DE700BF981600203C
:10534800080400209CAB0700C81A0700A81A070029
:10535800D816070001F1300CBC441CF82CCC03F81B
:1053680001CB01310129F5D90D2840DD0E2342B1C9
:105378000321397200217972B9720121F972B86872
:10538800206100216FF300016FF341016FF3820187
:105398006FF3C501012060F38811C3F3090363F3B8
:1053A80052216FF3DE416FF3DF7100232A480FF0BB
:1053B800B5FCB546284B1B6813F0070F41D06E4665
:1053C80088B002AB13F1100214D010215AB108466C
:1053D800042901DD214C5C61082800DD9D610C2851
:1053E8000BDDA720D8610F2932DD102407E06FF00C
:1053F8001B03BCE76FF00041E8E76FF01B043AB10C
:105408000421397200217972B972F972B868186189
:1054180000216FF300016FF341016FF382016FF315
:10542800C501012363F3881104F47D7464F35221E8
:105438006FF3DE416FF3DF71002307480FF06EFC56
:10544800B546404080F311884FF0030002DFD2E4F4
:105458006FF01B04D3E700BF98160020D81607008A
:10546800F0B587B002AF0023FB603EE06FF000416B
:1054780057E00F2966DD10213AB104203871002069
:105488007871B871F871786818616FF300046FF378
:1054980041046FF382046FF3C504012363F3881496
:1054A80001F47D7363F352246FF3DE446FF3DF740A
:1054B8000023214625480FF031FCAD46404080F3DB
:1054C80011884FF0030002DFF86890F8FF30D0F839
:1054D8000021D0F8FB10D0F80451009501F048FFE6
:1054E80007F10C011A480BF087FC4FF0FF324FF020
:1054F800FF33CDE9002307F1080207F10C01144836
:105508000BF046FC06460028DED0104B1B6813F053
:10551800070FD3D06D4688B002AB13F11002A5D0A7
:105528001021002AA5D00846042903DDDFF824C08D
:10553800C3F814C0082800DD9E610C2899DDB4204A
:10554800D86196E76FF01B0196E700BF9816002018
:1055580008040020D8160700014B1878704700BFD0
:10556800001500202A4B1B7803B17047F0B583B0B3
:1055780000AF06F0CDF8044600283ED0254B1B6846
:1055880083423AD0244B1B6813F0060F35D06D4682
:1055980088B06B4613F1100234D00C213AB108469A
:1055A800042901DD1D4E5E61082800DD9C610B2980
:1055B8002BDD4FF00C0C3AB10321397100217971C0
:1055C800B971F9717868186100216FF300016FF300
:1055D80041016FF382016FF3C501022363F3881160
:1055E8000CF47B7C6CF352216FF3DE416FF3DF71B7
:1055F800002309480FF092FBAD46064B1C600C37A0
:10560800BD46F0BD6FF00041C8E76FF01B0CD2E754
:1056180000150020385B002098160020E01A0700CB
:10562800B0B584B000AF4FF0FF324FF0FF33381DF4
:1056380007F0F8FE3B7953B1012B0CD107F11003A9
:1056480013E90300FFF73AF91037BD46B0BD387AC1
:10565800FFF778FAF8E7214A126812F0060FF3D03C
:105668006C4688B0694611F1100230D00C2042B166
:105678008446042801DD1A4D4D61BCF1080F00DD98
:105688008B610B2826DD0C233AB1032038700020EB
:105698007870B870F8703868086100216FF30001FD
:1056A8006FF341016FF382016FF3C501022060F3CC
:1056B800881103F47B7363F352216FF3DE416FF3B8
:1056C800DF71002305480FF029FBA546BCE76FF002
:1056D8000040CCE76FF01B03D6E700BF9816002008
:1056E8000C1B0700F0B58BB008AFA8480BF08AFC7C
:1056F800002800F0A2800446A54B1B6813F0070F92
:1057080054D06D4600233B7102237B7188B0AC46B0
:1057180015F110021FD00E2022B1042802DD9D4B86
:10572800CCF8143000233B7002237B70B2B10828F8
:1057380002DD994BCCF818300CF11C03002101292B
:105748000CD801F1080606EB070E1EF808EC03F862
:1057580001EB0131F3E76FF00040DDE70D2840F37E
:1057680002810E234AB10321397100217971B9717F
:105778000121F9717868CCF8100000216FF300015D
:105788006FF341016FF382016FF3C501012060F3EC
:105798008811C3F3090363F352216FF3DE416FF3FA
:1057A800DF7100237A480FF0B9FAAD46784B1B68D1
:1057B80013F0070F3BD06D4688B02B4615F1100249
:1057C80000F0D480102162B10846042901DD734E2F
:1057D8005E61082800DD9C610C2802DD4FF4D5705D
:1057E800D8610F2940F3C58010243AB104213971DA
:1057F80000217971B971F9717868186100216FF326
:1058080000016FF341016FF382016FF3C5010123BA
:1058180063F3881104F47D7464F352216FF3DE415D
:105828006FF3DF7100235A480FF078FAAD46404015
:1058380080F311884FF0030002DF00220023CDE936
:1058480006230023049304220392029301930093F6
:10585800534B4FF48052534953483DF06DF8534B26
:10586800186053493CF034FE0146002844D0484BA8
:105878001B6813F0070F39D06D4688B02B4615F119
:10588800100279D0102062B10446042801DD434E8D
:105898005E61082C00DD99610C2C02DD4FF4D97192
:1058A800D9610F286BDD10243AB104213971002128
:1058B8007971B971F9717868186100216FF3000185
:1058C8006FF341016FF382016FF3C501012363F3A5
:1058D800881104F47D7464F352216FF3DE416FF391
:1058E800DF7100232A480FF019FAAD46404080F3D3
:1058F80011884FF0030002DF2E4805F0B7FF044679
:10590800002800F0C780224B1B6813F0070F7CD0DB
:105918006D4600233B7102237B7188B0AC4615F1BC
:1059280010022FD00E2022B1042802DD194BCCF82A
:10593800143000233B7002237B70002A3ED00828D5
:1059480002DD1D4BCCF818300CF11C030021012995
:1059580034D801F1080606EB070E1EF808EC03F828
:1059680001EB0131F3E76FF01B03FBE66FF0004139
:1059780029E76FF01B0438E76FF0004083E76FF00A
:105988001B0491E76FF00040CDE700BF080400203A
:10599800981600209CAB0700381B0700D816070094
:1059A8006954000098ED0020B01D00203C5B0020E9
:1059B800581B0700E54D0000681B07000D286DDD2A
:1059C8000E234AB10321397100217971B97101217E
:1059D800F9717868CCF8100000216FF300016FF3BB
:1059E80041016FF382016FF3C501012060F3881153
:1059F800C3F3090363F352216FF3DE416FF3DF71E1
:105A080000232B480FF08AF9AD46294B1B6813F089
:105A1800070F39D06D4688B02B4615F1100240D0DB
:105A2800102162B10846042901DD224E5E61082872
:105A380000DD9C610C2802DD40F2B510D8610F2909
:105A480032DD10243AB10421397100217971B9711C
:105A5800F9717868186100216FF300016FF3410153
:105A68006FF382016FF3C501012363F3881104F416
:105A78007D7464F352216FF3DE416FF3DF7100230D
:105A88000B480FF04BF9AD46404080F311884FF0BA
:105A9800030002DF00200C37BD46F0BD6FF01B038A
:105AA8008FE76FF00041BCE76FF01B04CAE700BF47
:105AB80098160020D81607004AF27A73984228BF31
:105AC800184648F6E273984238BF1846044B93F8D4
